{
  "contractName": "PathMap",
  "abi": [
    {
      "constant": true,
      "inputs": [
        {
          "internalType": "string",
          "name": "",
          "type": "string"
        }
      ],
      "name": "paths",
      "outputs": [
        {
          "internalType": "string",
          "name": "codec",
          "type": "string"
        }
      ],
      "payable": false,
      "stateMutability": "view",
      "type": "function"
    },
    {
      "constant": false,
      "inputs": [
        {
          "internalType": "string",
          "name": "path",
          "type": "string"
        },
        {
          "internalType": "string",
          "name": "codec",
          "type": "string"
        },
        {
          "internalType": "uint8[]",
          "name": "multihash",
          "type": "uint8[]"
        }
      ],
      "name": "set",
      "outputs": [],
      "payable": false,
      "stateMutability": "nonpayable",
      "type": "function"
    },
    {
      "constant": true,
      "inputs": [
        {
          "internalType": "string",
          "name": "path",
          "type": "string"
        }
      ],
      "name": "get",
      "outputs": [
        {
          "components": [
            {
              "internalType": "string",
              "name": "codec",
              "type": "string"
            },
            {
              "internalType": "uint8[]",
              "name": "multihash",
              "type": "uint8[]"
            }
          ],
          "internalType": "struct PathMap.CID",
          "name": "",
          "type": "tuple"
        }
      ],
      "payable": false,
      "stateMutability": "view",
      "type": "function"
    }
  ],
  "bytecode": "0x608060405234801561001057600080fd5b50610af4806100206000396000f3fe608060405234801561001057600080fd5b50600436106100415760003560e01c80635de8c11614610046578063693ec85e1461007657806369f5b807146100a6575b600080fd5b610060600480360361005b9190810190610631565b6100c2565b60405161006d91906108cd565b60405180910390f35b610090600480360361008b9190810190610672565b61018e565b60405161009d91906108ef565b60405180910390f35b6100c060048036036100bb91908101906106b3565b6102e6565b005b600081805160208101820180518482526020830160208501208183528095505050505050600091509050806000018054600181600116156101000203166002900480601f0160208091040260200160405190810160405280929190818152602001828054600181600116156101000203166002900480156101845780601f1061015957610100808354040283529160200191610184565b820191906000526020600020905b81548152906001019060200180831161016757829003601f168201915b5050505050905081565b61019661035b565b6000826040516101a691906108b6565b9081526020016040518091039020604051806040016040529081600082018054600181600116156101000203166002900480601f0160208091040260200160405190810160405280929190818152602001828054600181600116156101000203166002900480156102585780601f1061022d57610100808354040283529160200191610258565b820191906000526020600020905b81548152906001019060200180831161023b57829003601f168201915b50505050508152602001600182018054806020026020016040519081016040528092919081815260200182805480156102d657602002820191906000526020600020906000905b82829054906101000a900460ff1660ff168152602001906001019060208260000104928301926001038202915080841161029f5790505b5050505050815250509050919050565b60405180604001604052808381526020018281525060008460405161030b91906108b6565b90815260200160405180910390206000820151816000019080519060200190610335929190610375565b5060208201518160010190805190602001906103529291906103f5565b50905050505050565b604051806040016040528060608152602001606081525090565b828054600181600116156101000203166002900490600052602060002090601f016020900481019282601f106103b657805160ff19168380011785556103e4565b828001600101855582156103e4579182015b828111156103e35782518255916020019190600101906103c8565b5b5090506103f1919061049c565b5090565b82805482825590600052602060002090601f0160209004810192821561048b5791602002820160005b8382111561045c57835183826101000a81548160ff021916908360ff160217905550926020019260010160208160000104928301926001030261041e565b80156104895782816101000a81549060ff021916905560010160208160000104928301926001030261045c565b505b50905061049891906104c1565b5090565b6104be91905b808211156104ba5760008160009055506001016104a2565b5090565b90565b6104ee91905b808211156104ea57600081816101000a81549060ff0219169055506001016104c7565b5090565b90565b600082601f83011261050257600080fd5b81356105156105108261093e565b610911565b9150818183526020840193506020810190508385602084028201111561053a57600080fd5b60005b8381101561056a5781610550888261061c565b84526020840193506020830192505060018101905061053d565b5050505092915050565b600082601f83011261058557600080fd5b813561059861059382610966565b610911565b915080825260208301602083018583830111156105b457600080fd5b6105bf838284610a47565b50505092915050565b600082601f8301126105d957600080fd5b81356105ec6105e782610992565b610911565b9150808252602083016020830185838301111561060857600080fd5b610613838284610a47565b50505092915050565b60008135905061062b81610a9a565b92915050565b60006020828403121561064357600080fd5b600082013567ffffffffffffffff81111561065d57600080fd5b61066984828501610574565b91505092915050565b60006020828403121561068457600080fd5b600082013567ffffffffffffffff81111561069e57600080fd5b6106aa848285016105c8565b91505092915050565b6000806000606084860312156106c857600080fd5b600084013567ffffffffffffffff8111156106e257600080fd5b6106ee868287016105c8565b935050602084013567ffffffffffffffff81111561070b57600080fd5b610717868287016105c8565b925050604084013567ffffffffffffffff81111561073457600080fd5b610740868287016104f1565b9150509250925092565b600061075683836108a7565b60208301905092915050565b600061076d826109ce565b61077781856109fc565b9350610782836109be565b8060005b838110156107b357815161079a888261074a565b97506107a5836109ef565b925050600181019050610786565b5085935050505092915050565b60006107cb826109e4565b6107d58185610a2f565b93506107e5818560208601610a56565b80840191505092915050565b60006107fc826109d9565b6108068185610a0d565b9350610816818560208601610a56565b61081f81610a89565b840191505092915050565b6000610835826109d9565b61083f8185610a1e565b935061084f818560208601610a56565b61085881610a89565b840191505092915050565b6000604083016000830151848203600086015261088082826107f1565b9150506020830151848203602086015261089a8282610762565b9150508091505092915050565b6108b081610a3a565b82525050565b60006108c282846107c0565b915081905092915050565b600060208201905081810360008301526108e7818461082a565b905092915050565b600060208201905081810360008301526109098184610863565b905092915050565b6000604051905081810181811067ffffffffffffffff8211171561093457600080fd5b8060405250919050565b600067ffffffffffffffff82111561095557600080fd5b602082029050602081019050919050565b600067ffffffffffffffff82111561097d57600080fd5b601f19601f8301169050602081019050919050565b600067ffffffffffffffff8211156109a957600080fd5b601f19601f8301169050602081019050919050565b6000819050602082019050919050565b600081519050919050565b600081519050919050565b600081519050919050565b6000602082019050919050565b600082825260208201905092915050565b600082825260208201905092915050565b600082825260208201905092915050565b600081905092915050565b600060ff82169050919050565b82818337600083830152505050565b60005b83811015610a74578082015181840152602081019050610a59565b83811115610a83576000848401525b50505050565b6000601f19601f8301169050919050565b610aa381610a3a565b8114610aae57600080fd5b5056fea365627a7a72315820faf41fd8a575300807464ec1247e80c0bc6f3852c1790cb9a1ecefef37b16ebd6c6578706572696d656e74616cf564736f6c63430005100040",
  "source": "// SPDX-License-Identifier: MIT\npragma solidity >=0.4.21 <0.7.0;\npragma experimental ABIEncoderV2;\n\ncontract PathMap {\n  struct CID {\n    string codec;\n    uint8[] multihash;\n  }\n  mapping(string => CID) public paths;\n\n  function set(string memory path, string memory codec, uint8[] memory multihash) public {\n    paths[path] = CID(codec, multihash);\n  }\n\n  function get(string memory path) public view returns (CID memory) {\n    return paths[path];\n  }\n}\n",
  "sourcePath": "/home/will/tip/libres-truffle/contracts/PathMap.sol",
  "compiler": {
    "name": "solc",
    "version": "0.5.16+commit.9c3226ce.Emscripten.clang"
  },
  "schemaVersion": "3.2.2",
  "updatedAt": "2020-07-17T08:02:58.635Z",
  "networkType": "ethereum",
  "devdoc": {
    "methods": {}
  },
  "userdoc": {
    "methods": {}
  }
}