{
  "contractName": "PathMap",
  "abi": [
    {
      "constant": true,
      "inputs": [],
      "name": "hasInitialized",
      "outputs": [
        {
          "name": "",
          "type": "bool"
        }
      ],
      "payable": false,
      "stateMutability": "view",
      "type": "function"
    },
    {
      "constant": true,
      "inputs": [
        {
          "name": "_script",
          "type": "bytes"
        }
      ],
      "name": "getEVMScriptExecutor",
      "outputs": [
        {
          "name": "",
          "type": "address"
        }
      ],
      "payable": false,
      "stateMutability": "view",
      "type": "function"
    },
    {
      "constant": true,
      "inputs": [],
      "name": "getRecoveryVault",
      "outputs": [
        {
          "name": "",
          "type": "address"
        }
      ],
      "payable": false,
      "stateMutability": "view",
      "type": "function"
    },
    {
      "constant": true,
      "inputs": [
        {
          "name": "token",
          "type": "address"
        }
      ],
      "name": "allowRecoverability",
      "outputs": [
        {
          "name": "",
          "type": "bool"
        }
      ],
      "payable": false,
      "stateMutability": "view",
      "type": "function"
    },
    {
      "constant": true,
      "inputs": [],
      "name": "appId",
      "outputs": [
        {
          "name": "",
          "type": "bytes32"
        }
      ],
      "payable": false,
      "stateMutability": "view",
      "type": "function"
    },
    {
      "constant": true,
      "inputs": [],
      "name": "getInitializationBlock",
      "outputs": [
        {
          "name": "",
          "type": "uint256"
        }
      ],
      "payable": false,
      "stateMutability": "view",
      "type": "function"
    },
    {
      "constant": false,
      "inputs": [
        {
          "name": "_token",
          "type": "address"
        }
      ],
      "name": "transferToVault",
      "outputs": [],
      "payable": false,
      "stateMutability": "nonpayable",
      "type": "function"
    },
    {
      "constant": true,
      "inputs": [
        {
          "name": "_sender",
          "type": "address"
        },
        {
          "name": "_role",
          "type": "bytes32"
        },
        {
          "name": "_params",
          "type": "uint256[]"
        }
      ],
      "name": "canPerform",
      "outputs": [
        {
          "name": "",
          "type": "bool"
        }
      ],
      "payable": false,
      "stateMutability": "view",
      "type": "function"
    },
    {
      "constant": true,
      "inputs": [],
      "name": "getEVMScriptRegistry",
      "outputs": [
        {
          "name": "",
          "type": "address"
        }
      ],
      "payable": false,
      "stateMutability": "view",
      "type": "function"
    },
    {
      "constant": true,
      "inputs": [],
      "name": "kernel",
      "outputs": [
        {
          "name": "",
          "type": "address"
        }
      ],
      "payable": false,
      "stateMutability": "view",
      "type": "function"
    },
    {
      "constant": true,
      "inputs": [],
      "name": "isPetrified",
      "outputs": [
        {
          "name": "",
          "type": "bool"
        }
      ],
      "payable": false,
      "stateMutability": "view",
      "type": "function"
    },
    {
      "constant": true,
      "inputs": [
        {
          "name": "",
          "type": "uint256"
        }
      ],
      "name": "paths",
      "outputs": [
        {
          "name": "codec",
          "type": "string"
        }
      ],
      "payable": false,
      "stateMutability": "view",
      "type": "function"
    },
    {
      "anonymous": false,
      "inputs": [
        {
          "indexed": true,
          "name": "executor",
          "type": "address"
        },
        {
          "indexed": false,
          "name": "script",
          "type": "bytes"
        },
        {
          "indexed": false,
          "name": "input",
          "type": "bytes"
        },
        {
          "indexed": false,
          "name": "returnData",
          "type": "bytes"
        }
      ],
      "name": "ScriptResult",
      "type": "event"
    },
    {
      "anonymous": false,
      "inputs": [
        {
          "indexed": true,
          "name": "vault",
          "type": "address"
        },
        {
          "indexed": true,
          "name": "token",
          "type": "address"
        },
        {
          "indexed": false,
          "name": "amount",
          "type": "uint256"
        }
      ],
      "name": "RecoverToVault",
      "type": "event"
    },
    {
      "constant": false,
      "inputs": [
        {
          "name": "pathhash",
          "type": "uint256"
        },
        {
          "name": "codec",
          "type": "string"
        },
        {
          "name": "multihash",
          "type": "uint8[]"
        }
      ],
      "name": "set",
      "outputs": [],
      "payable": false,
      "stateMutability": "nonpayable",
      "type": "function"
    },
    {
      "constant": true,
      "inputs": [
        {
          "name": "pathhash",
          "type": "uint256"
        }
      ],
      "name": "get",
      "outputs": [
        {
          "components": [
            {
              "name": "codec",
              "type": "string"
            },
            {
              "name": "multihash",
              "type": "uint8[]"
            }
          ],
          "name": "",
          "type": "tuple"
        }
      ],
      "payable": false,
      "stateMutability": "view",
      "type": "function"
    }
  ],
  "bytecode": "0x60806040526200001d62000023640100000000026401000000009004565b620002ef565b60006200003e620000f8640100000000026401000000009004565b146040805190810160405280601881526020017f494e49545f414c52454144595f494e495449414c495a45440000000000000000815250901515620000bb576040517f08c379a0000000000000000000000000000000000000000000000000000000008152600401620000b2919062000279565b60405180910390fd5b50620000f67fffffffffffffffffffffffffffffffffffffffffffffffffffffffffffffffff62000145640100000000026401000000009004565b565b6000620001407febb05b386a8d34882b8711d156f463690983dc47815980fb82aeeff1aa43579e600102600019166200022b6401000000000262000d83176401000000009004565b905090565b600062000160620000f8640100000000026401000000009004565b146040805190810160405280601881526020017f494e49545f414c52454144595f494e495449414c495a45440000000000000000815250901515620001dd576040517f08c379a0000000000000000000000000000000000000000000000000000000008152600401620001d4919062000279565b60405180910390fd5b5062000228817febb05b386a8d34882b8711d156f463690983dc47815980fb82aeeff1aa43579e60010260001916620002366401000000000262001bd5179091906401000000009004565b50565b600081549050919050565b8082555050565b60006200024a826200029d565b80845262000260816020860160208601620002a8565b6200026b81620002de565b602085010191505092915050565b600060208201905081810360008301526200029581846200023d565b905092915050565b600081519050919050565b60005b83811015620002c8578082015181840152602081019050620002ab565b83811115620002d8576000848401525b50505050565b6000601f19601f8301169050919050565b611c1680620002ff6000396000f3006080604052600436106100d0576000357c0100000000000000000000000000000000000000000000000000000000900463ffffffff1680630803fac0146100d55780632914b9bd1461010057806332f0a3b51461013d5780634d5dd721146101685780637e7db6e11461019157806380afdea8146101ce5780638b3dd749146101f95780639507d39a146102245780639d4941d814610261578063a1658fad1461028a578063a479e508146102c7578063d4aae0c4146102f2578063de4796ed1461031d578063fc1bcd4914610348575b600080fd5b3480156100e157600080fd5b506100ea610385565b6040516100f7919061185f565b60405180910390f35b34801561010c57600080fd5b506101276004803603610122919081019061153a565b6103b0565b60405161013491906118e0565b60405180910390f35b34801561014957600080fd5b50610152610467565b60405161015f91906117cf565b60405180910390f35b34801561017457600080fd5b5061018f600480360361018a91908101906115cd565b610511565b005b34801561019d57600080fd5b506101b860048036036101b39190810190611458565b61057a565b6040516101c5919061185f565b60405180910390f35b3480156101da57600080fd5b506101e3610585565b6040516101f0919061187a565b60405180910390f35b34801561020557600080fd5b5061020e6105bc565b60405161021b9190611975565b60405180910390f35b34801561023057600080fd5b5061024b600480360361024691908101906115a4565b6105f3565b6040516102589190611953565b60405180910390f35b34801561026d57600080fd5b5061028860048036036102839190810190611458565b61073f565b005b34801561029657600080fd5b506102b160048036036102ac91908101906114aa565b610a2e565b6040516102be919061185f565b60405180910390f35b3480156102d357600080fd5b506102dc610b50565b6040516102e991906118fb565b60405180910390f35b3480156102fe57600080fd5b50610307610c52565b6040516103149190611916565b60405180910390f35b34801561032957600080fd5b50610332610c89565b60405161033f919061185f565b60405180910390f35b34801561035457600080fd5b5061036f600480360361036a91908101906115a4565b610cba565b60405161037c9190611931565b60405180910390f35b6000806103906105bc565b9050600081141580156103aa5750806103a7610d70565b10155b91505090565b60006103ba610b50565b73ffffffffffffffffffffffffffffffffffffffff166304bf2a7f836040518263ffffffff167c010000000000000000000000000000000000000000000000000000000002815260040161040e91906118be565b602060405180830381600087803b15801561042857600080fd5b505af115801561043c573d6000803e3d6000fd5b505050506040513d601f19601f82011682018060405250610460919081019061157b565b9050919050565b6000610471610c52565b73ffffffffffffffffffffffffffffffffffffffff166332f0a3b56040518163ffffffff167c0100000000000000000000000000000000000000000000000000000000028152600401602060405180830381600087803b1580156104d457600080fd5b505af11580156104e8573d6000803e3d6000fd5b505050506040513d601f19601f8201168201806040525061050c9190810190611481565b905090565b6040805190810160405280838152602001828152506000808581526020019081526020016000206000820151816000019080519060200190610554929190611080565b506020820151816001019080519060200190610571929190611100565b50905050505050565b600060019050919050565b60006105b77fd625496217aa6a3453eecb9c3489dc5a53e6c67b444329ea2b2cbc9ff547639b60010260001916610d78565b905090565b60006105ee7febb05b386a8d34882b8711d156f463690983dc47815980fb82aeeff1aa43579e60010260001916610d83565b905090565b6105fb6111a7565b600080838152602001908152602001600020604080519081016040529081600082018054600181600116156101000203166002900480601f0160208091040260200160405190810160405280929190818152602001828054600181600116156101000203166002900480156106b15780601f10610686576101008083540402835291602001916106b1565b820191906000526020600020905b81548152906001019060200180831161069457829003601f168201915b505050505081526020016001820180548060200260200160405190810160405280929190818152602001828054801561072f57602002820191906000526020600020906000905b82829054906101000a900460ff1660ff16815260200190600101906020826000010492830192600103820291508084116106f85790505b5050505050815250509050919050565b600080600061074d8461057a565b6040805190810160405280601281526020017f5245434f5645525f444953414c4c4f57454400000000000000000000000000008152509015156107c6576040517f08c379a00000000000000000000000000000000000000000000000000000000081526004016107bd9190611931565b60405180910390fd5b506107cf610467565b92506107da83610d8e565b6040805190810160405280601a81526020017f5245434f5645525f5641554c545f4e4f545f434f4e5452414354000000000000815250901515610853576040517f08c379a000000000000000000000000000000000000000000000000000000000815260040161084a9190611931565b60405180910390fd5b50600073ffffffffffffffffffffffffffffffffffffffff168473ffffffffffffffffffffffffffffffffffffffff1614156108ef573073ffffffffffffffffffffffffffffffffffffffff163191508273ffffffffffffffffffffffffffffffffffffffff166108fc839081150290604051600060405180830381858888f193505050501580156108e9573d6000803e3d6000fd5b506109c3565b83905061091b308273ffffffffffffffffffffffffffffffffffffffff16610de090919063ffffffff16565b915061094883838373ffffffffffffffffffffffffffffffffffffffff16610f299092919063ffffffff16565b6040805190810160405280601d81526020017f5245434f5645525f544f4b454e5f5452414e534645525f4641494c45440000008152509015156109c1576040517f08c379a00000000000000000000000000000000000000000000000000000000081526004016109b89190611931565b60405180910390fd5b505b8373ffffffffffffffffffffffffffffffffffffffff168373ffffffffffffffffffffffffffffffffffffffff167f596caf56044b55fb8c4ca640089bbc2b63cae3e978b851f5745cbb7c5b288e0284604051610a209190611975565b60405180910390a350505050565b600080610a39610385565b1515610a485760009150610b48565b610a50610c52565b9050600073ffffffffffffffffffffffffffffffffffffffff168173ffffffffffffffffffffffffffffffffffffffff161415610a905760009150610b48565b8073ffffffffffffffffffffffffffffffffffffffff1663fdef9106863087610ab888610fd7565b6040518563ffffffff167c0100000000000000000000000000000000000000000000000000000000028152600401610af394939291906117ea565b602060405180830381600087803b158015610b0d57600080fd5b505af1158015610b21573d6000803e3d6000fd5b505050506040513d601f19601f82011682018060405250610b459190810190611511565b91505b509392505050565b600080610b5b610c52565b73ffffffffffffffffffffffffffffffffffffffff1663be00bbd87fd6f028ca0e8edb4a8c9757ca4fdccab25fa1e0317da1188108f7d2dee14902fb6001027fddbcfd564f642ab5627cf68b9b7d374fb4f8a36e941a75d89c87998cef03bd616001026040518363ffffffff167c0100000000000000000000000000000000000000000000000000000000028152600401610bf7929190611895565b602060405180830381600087803b158015610c1157600080fd5b505af1158015610c25573d6000803e3d6000fd5b505050506040513d601f19601f82011682018060405250610c499190810190611481565b90508091505090565b6000610c847f4172f0f7d2289153072b0a6ca36959e0cbe2efc3afe50fc81636caa96338137b60010260001916610fee565b905090565b60007fffffffffffffffffffffffffffffffffffffffffffffffffffffffffffffffff610cb46105bc565b14905090565b6000602052806000526040600020600091509050806000018054600181600116156101000203166002900480601f016020809104026020016040519081016040528092919081815260200182805460018160011615610100020316600290048015610d665780601f10610d3b57610100808354040283529160200191610d66565b820191906000526020600020905b815481529060010190602001808311610d4957829003601f168201915b5050505050905081565b600043905090565b600081549050919050565b600081549050919050565b600080600073ffffffffffffffffffffffffffffffffffffffff168373ffffffffffffffffffffffffffffffffffffffff161415610dcf5760009150610dda565b823b90506000811191505b50919050565b600060606000808573ffffffffffffffffffffffffffffffffffffffff166370a0823190507c01000000000000000000000000000000000000000000000000000000000285604051602401610e3591906117cf565b604051602081830303815290604052907bffffffffffffffffffffffffffffffffffffffffffffffffffffffff19166020820180517bffffffffffffffffffffffffffffffffffffffffffffffffffffffff83818316178352505050509250610e9e8684610ff9565b91509150816040805190810160405280601c81526020017f534146455f4552435f32305f42414c414e43455f524556455254454400000000815250901515610f1c576040517f08c379a0000000000000000000000000000000000000000000000000000000008152600401610f139190611931565b60405180910390fd5b5080935050505092915050565b6000606063a9059cbb7c0100000000000000000000000000000000000000000000000000000000028484604051602401610f64929190611836565b604051602081830303815290604052907bffffffffffffffffffffffffffffffffffffffffffffffffffffffff19166020820180517bffffffffffffffffffffffffffffffffffffffffffffffffffffffff83818316178352505050509050610fcd858261102e565b9150509392505050565b606060006020835102905082915080825250919050565b600081549050919050565b6000806000806040516020818751602089018a5afa9250600083111561101e57805191505b5081819350935050509250929050565b6000806040516020818551602087016000895af16000811115611074573d60008114611061576020811461106a57611072565b60019350611072565b600183511493505b505b50508091505092915050565b828054600181600116156101000203166002900490600052602060002090601f016020900481019282601f106110c157805160ff19168380011785556110ef565b828001600101855582156110ef579182015b828111156110ee5782518255916020019190600101906110d3565b5b5090506110fc91906111c1565b5090565b82805482825590600052602060002090601f016020900481019282156111965791602002820160005b8382111561116757835183826101000a81548160ff021916908360ff1602179055509260200192600101602081600001049283019260010302611129565b80156111945782816101000a81549060ff0219169055600101602081600001049283019260010302611167565b505b5090506111a391906111e6565b5090565b604080519081016040528060608152602001606081525090565b6111e391905b808211156111df5760008160009055506001016111c7565b5090565b90565b61121391905b8082111561120f57600081816101000a81549060ff0219169055506001016111ec565b5090565b90565b60006112228235611aed565b905092915050565b60006112368251611aed565b905092915050565b600082601f830112151561125157600080fd5b813561126461125f826119bd565b611990565b9150818183526020840193506020810190508385602084028201111561128957600080fd5b60005b838110156112b9578161129f8882611430565b84526020840193506020830192505060018101905061128c565b5050505092915050565b600082601f83011215156112d657600080fd5b81356112e96112e4826119e5565b611990565b9150818183526020840193506020810190508385602084028201111561130e57600080fd5b60005b8381101561133e57816113248882611444565b845260208401935060208301925050600181019050611311565b5050505092915050565b60006113548251611b0d565b905092915050565b60006113688235611b19565b905092915050565b600082601f830112151561138357600080fd5b813561139661139182611a0d565b611990565b915080825260208301602083018583830111156113b257600080fd5b6113bd838284611b82565b50505092915050565b60006113d28251611b23565b905092915050565b600082601f83011215156113ed57600080fd5b81356114006113fb82611a39565b611990565b9150808252602083016020830185838301111561141c57600080fd5b611427838284611b82565b50505092915050565b600061143c8235611b35565b905092915050565b60006114508235611b3f565b905092915050565b60006020828403121561146a57600080fd5b600061147884828501611216565b91505092915050565b60006020828403121561149357600080fd5b60006114a18482850161122a565b91505092915050565b6000806000606084860312156114bf57600080fd5b60006114cd86828701611216565b93505060206114de8682870161135c565b925050604084013567ffffffffffffffff8111156114fb57600080fd5b6115078682870161123e565b9150509250925092565b60006020828403121561152357600080fd5b600061153184828501611348565b91505092915050565b60006020828403121561154c57600080fd5b600082013567ffffffffffffffff81111561156657600080fd5b61157284828501611370565b91505092915050565b60006020828403121561158d57600080fd5b600061159b848285016113c6565b91505092915050565b6000602082840312156115b657600080fd5b60006115c484828501611430565b91505092915050565b6000806000606084860312156115e257600080fd5b60006115f086828701611430565b935050602084013567ffffffffffffffff81111561160d57600080fd5b611619868287016113da565b925050604084013567ffffffffffffffff81111561163657600080fd5b611642868287016112c3565b9150509250925092565b61165581611aa0565b82525050565b600061166682611a72565b80845260208401935061167883611a65565b60005b828110156116aa5761168e8683516117c0565b61169782611a93565b915060208601955060018101905061167b565b50849250505092915050565b6116bf81611ac0565b82525050565b6116ce81611acc565b82525050565b60006116df82611a7d565b8084526116f3816020860160208601611b91565b6116fc81611bc4565b602085010191505092915050565b61171381611b4c565b82525050565b61172281611b5e565b82525050565b61173181611b70565b82525050565b600061174282611a88565b808452611756816020860160208601611b91565b61175f81611bc4565b602085010191505092915050565b6000604083016000830151848203600086015261178a8282611737565b915050602083015184820360208601526117a4828261165b565b9150508091505092915050565b6117ba81611ad6565b82525050565b6117c981611ae0565b82525050565b60006020820190506117e4600083018461164c565b92915050565b60006080820190506117ff600083018761164c565b61180c602083018661164c565b61181960408301856116c5565b818103606083015261182b81846116d4565b905095945050505050565b600060408201905061184b600083018561164c565b61185860208301846117b1565b9392505050565b600060208201905061187460008301846116b6565b92915050565b600060208201905061188f60008301846116c5565b92915050565b60006040820190506118aa60008301856116c5565b6118b760208301846116c5565b9392505050565b600060208201905081810360008301526118d881846116d4565b905092915050565b60006020820190506118f5600083018461170a565b92915050565b60006020820190506119106000830184611719565b92915050565b600060208201905061192b6000830184611728565b92915050565b6000602082019050818103600083015261194b8184611737565b905092915050565b6000602082019050818103600083015261196d818461176d565b905092915050565b600060208201905061198a60008301846117b1565b92915050565b6000604051905081810181811067ffffffffffffffff821117156119b357600080fd5b8060405250919050565b600067ffffffffffffffff8211156119d457600080fd5b602082029050602081019050919050565b600067ffffffffffffffff8211156119fc57600080fd5b602082029050602081019050919050565b600067ffffffffffffffff821115611a2457600080fd5b601f19601f8301169050602081019050919050565b600067ffffffffffffffff821115611a5057600080fd5b601f19601f8301169050602081019050919050565b6000602082019050919050565b600081519050919050565b600081519050919050565b600081519050919050565b6000602082019050919050565b600073ffffffffffffffffffffffffffffffffffffffff82169050919050565b60008115159050919050565b6000819050919050565b6000819050919050565b600060ff82169050919050565b600073ffffffffffffffffffffffffffffffffffffffff82169050919050565b60008115159050919050565b6000819050919050565b6000611b2e82611aa0565b9050919050565b6000819050919050565b600060ff82169050919050565b6000611b5782611aa0565b9050919050565b6000611b6982611aa0565b9050919050565b6000611b7b82611aa0565b9050919050565b82818337600083830152505050565b60005b83811015611baf578082015181840152602081019050611b94565b83811115611bbe576000848401525b50505050565b6000601f19601f8301169050919050565b80825550505600a265627a7a7230582008f09dad8bfd14268e531ea56abcdc9f1920412d6c6d7623b366d1956415af7d6c6578706572696d656e74616cf50037",
  "source": "// SPDX-License-Identifier: MIT\npragma solidity >=0.4.21 <0.7.0;\npragma experimental ABIEncoderV2;\n\nimport \"@aragon/os/contracts/apps/AragonApp.sol\";\n\ncontract PathMap is AragonApp {\n  struct CID {\n    string codec;\n    uint8[] multihash;\n  }\n  //mapping(string => CID) public paths;\n  mapping(uint256 => CID) public paths;\n\n  //function set(string memory path, string memory codec, uint8[] memory multihash) public {\n  function set(uint256 pathhash, string memory codec, uint8[] memory multihash) public {\n    paths[pathhash] = CID(codec, multihash);\n  }\n\n  //function get(string memory path) public view returns (CID memory) {\n  function get(uint256 pathhash) public view returns (CID memory) {\n    return paths[pathhash];\n  }\n}\n",
  "sourcePath": "/home/will/root/home/will/tip/libres-truffle/contracts/PathMap.sol",
  "compiler": {
    "name": "solc",
    "version": "0.4.26+commit.4563c3fc.Emscripten.clang"
  },
  "schemaVersion": "3.2.2",
  "updatedAt": "2020-07-19T17:27:25.275Z",
  "networkType": "ethereum",
  "devdoc": {
    "methods": {
      "allowRecoverability(address)": {
        "details": "By default deriving from AragonApp makes it recoverable",
        "params": {
          "token": "Token address that would be recovered"
        },
        "return": "bool whether the app allows the recovery"
      },
      "canPerform(address,bytes32,uint256[])": {
        "details": "Check whether an action can be performed by a sender for a particular role on this app",
        "params": {
          "_params": "Permission params for the role",
          "_role": "Role on this app",
          "_sender": "Sender of the call"
        },
        "return": "Boolean indicating whether the sender has the permissions to perform the action.        Always returns false if the app hasn't been initialized yet."
      },
      "getInitializationBlock()": {
        "return": "Block number in which the contract was initialized"
      },
      "getRecoveryVault()": {
        "details": "Get the recovery vault for the app",
        "return": "Recovery vault address for the app"
      },
      "hasInitialized()": {
        "return": "Whether the contract has been initialized by the time of the current block"
      },
      "transferToVault(address)": {
        "params": {
          "_token": "Token balance to be sent to recovery vault."
        }
      }
    }
  },
  "userdoc": {
    "methods": {
      "transferToVault(address)": {
        "notice": "Send funds to recovery Vault. This contract should never receive funds,        but in case it does, this function allows one to recover them."
      }
    }
  }
}